:020000040800F2
:10000000C00900208901000819310008712B00087F
:1000100005300008D50400081D3800080000000065
:100020000000000000000000000000005D33000838
:100030000108000800000000C13100086133000819
:10004000A3010008A3010008A3010008A301000800
:10005000A3010008A3010008A3010008A3010008F0
:10006000A3010008A3010008A3010008A3010008E0
:10007000A3010008A3010008A3010008A3010008D0
:10008000F5070008A3010008A3010008A301000868
:10009000A3010008A3010008A3010008A3010008B0
:1000A000A301000869330008A3010008A3010008A8
:1000B000A301000875330008A3010008A30100088C
:1000C000A3010008A3010008A3010008A301000880
:1000D000A3010008A3010008D9370008A301000804
:1000E000A3010008A3010008A301000800F002F822
:1000F00000F03AF80AA090E8000C82448344AAF188
:100100000107DA4501D100F02FF8AFF2090EBAE885
:100110000F0013F0010F18BFFB1A43F0010318473B
:10012000A4400000C4400000103A24BF78C878C141
:10013000FAD8520724BF30C830C144BF04680C60ED
:10014000704700000023002400250026103A28BF35
:1001500078C1FBD8520728BF30C148BF0B60704739
:100160001FB51FBD10B510BD00F031F81146FFF7E7
:10017000F7FF03F06BFB00F04FF803B4FFF7F2FF5B
:1001800003BC00F057F800000948804709480047C1
:10019000FEE7FEE7FEE7FEE7FEE7FEE7FEE7FEE737
:1001A000FEE7FEE704480549054A064B7047000094
:1001B00065330008ED000008C0030020C0090020DE
:1001C000C0050020C0050020704770477047754685
:1001D00000F02CF8AE4605006946534620F00700B3
:1001E000854618B020B5FFF7DDFFBDE820404FF091
:1001F00000064FF000074FF000084FF0000BAC4630
:10020000ACE8C009ACE8C009ACE8C009ACE8C0097A
:1002100021F007018D46704710B50446AFF300800A
:100220002046BDE81040FFF7A8BF00000048704717
:100230001000002001491820ABBEFEE72600020096
:100240007047000010B540F2F424C2F20004D4E973
:10025000012104F1200002F061FFE06B03F074FD66
:100260002080BDE8104000F097B8000070B582B063
:1002700040F2F4240021C2F200040020C4F2A001E4
:10028000C4E9010140F2642640F60001C2F2000612
:10029000C4F201012080A081C4E90460A1614FF48F
:1002A0000041A07744F20000A18344F20005C4F2AB
:1002B0009C604CF200014DF20A72CCF29C650090F9
:1002C00004F12000C4F2DA51C3F6A34200230195E1
:1002D00002F068FF40F2B0050020C2F20005C4F24F
:1002E000165008210022C5E9000605F10800C4F2F5
:1002F0007A4246C01620A88340F2D4100C23C2F2E2
:1003000000003C216B61286201F046FCD4E9040145
:1003100001F070FFD5E9010101F06CFFD5E904019E
:1003200002B0BDE8704001F065BF000080B50A462C
:1003300040F2F421C2F2000188600021C4F287314A
:10034000104603F00BFC0021C4F2FA4103F0E4FD77
:100350000021C4F2FA3103F069FB40F2B001C2F2AD
:100360000001086080BD000060B1012818BF70471F
:100370000020C4F2FA4040F2B001C2F20001C860AD
:10038000704700BF0020C4F27A4040F2B001C2F2D0
:100390000001C86070470000B0B540F2B004C2F27E
:1003A0000004A068082815D0042823D060BBD4E935
:1003B000000503F0E5FC296848636069082812D04D
:1003C00004282BD090BBD4E9030403F0D9FC2168A6
:1003D000486331E0D4E9000503F0D2FC2968C86322
:1003E00060690828ECD1D4E9030403F0C9FC216852
:1003F000C86321E0D4E9000503F0C2FC29688863E2
:1004000060690828DCD1EEE7D4E9000503F0B8FC08
:100410002968086460690828D2D1E4E7D4E90304B4
:1004200003F0AEFC2168886306E000BFD4E9030452
:1004300003F0A6FC2168086440F2F421C2F2000136
:10044000B1F90000B0F1FF3F0EDD4A6980B2002330
:10045000082A8B771AD0042A1CD0002A0A6912684D
:1004600014BF1064506318E04A690123082A8B778F
:100470001AD0042A20D0002A0A6944F620631268A0
:10048000184414BF106450631CE000BF0A6912686E
:10049000D06302E00A691268906300228869898B40
:1004A000BDE8B04000F0B6BC0A6944F620631268AB
:1004B0001844D06306E000BF0A6944F6206312685E
:1004C0001844906301228869898BBDE8B04000F030
:1004D000A1BC0000FEE7000080B540F2F000C2F2CF
:1004E0000000B0F800E04288838802EB0E0C0CEBB1
:1004F000030120F8081FAEEB020119448182A3EB2F
:100500000C010185A2EB0E0119448187BDE88040F2
:1005100000F066B810B540F2F004C2F2000440F2F8
:100520008C10C2F2000040F6000204F10C0300211E
:10053000C4F2010207C34FF4007340F21C2C238362
:10054000C2F2000C0423C4E908C38023A385082356
:10055000A262C4E90D03E2634FF4806302F5806296
:100560002160A180A17684F82E10A4F8403084F890
:1005700042100C232265012284F856100021C4E9A0
:1005800012C3A4F8542001F035FED4E9080101F0AB
:1005900031FED4E90D0101F02DFED4E9120101F084
:1005A00029FE6069218BA27E00F034FCA06AA18D37
:1005B00094F82E2000F02EFCE06BB4F8401094F874
:1005C000422000F027FC206DB4F8541094F8562017
:1005D00000F020FC0120BDE8104000F0F9BA000056
:1005E000B0B50446B0F9000040F2F0050028C2F2B0
:1005F00000050DDD296980B200220829A27415D0FA
:10060000042917D0D1B9E9680968486329E000BF17
:10061000296901220829A27412D0042916D0D9B957
:10062000E96800F5FA60096848631AE0E968096852
:10063000C86316E0E9680968886312E0E9680EE0BB
:10064000E96800F5FA600968C8630AE0E96800F53E
:10065000FA600968886304E0E96800F5FA600968EF
:1006600008646869298BAA7E00F0D4FBA08A01B2D5
:1006700001290DDB696A002284F82620C1B1042912
:100680001AD00829296A096814BF0864C86322E0DF
:10069000686A012284F8262090B1042816D0082820
:1006A000286A01F5FA61006814BF0164C16312E0B1
:1006B000296A096848630EE0296A096888630AE0C4
:1006C000286A01F5FA610068416304E0286A01F5CF
:1006D000FA6100688163A86AA98D95F82E2000F060
:1006E00099FB208D01B201290EDBA96B002284F851
:1006F0003A20C9B104291BD00829696B096814BFC5
:100700000864C86323E000BFA86B012284F83A2084
:1007100090B1042816D00828686B01F5FA610068CA
:1007200014BF0164C16312E0696B096848630EE09D
:10073000696B096888630AE0686B01F5FA61006813
:10074000416304E0686B01F5FA6100688163E86B5E
:10075000B5F8401095F8422000F05CFBA08F01B284
:1007600001290DDBE96C002284F84E20C1B1042977
:100770001AD00829A96C096814BF0864C86322E06C
:10078000E86C012284F84E2090B1042816D0082885
:10079000A86C01F5FA61006814BF0164C16312E03E
:1007A000A96C096848630EE0A96C096888630AE0CF
:1007B000A86C01F5FA610068416304E0A86C01F5DA
:1007C000FA6100688163286DB5F8541095F85620D9
:1007D000BDE8B04000F01EBB40F2F001C2F20001E3
:1007E0008880704740F2F003C2F2000318805980FD
:1007F0009A80704740F24810C2F2000000F086B8BC
:1008000070470000EFF3108072B600BFFEE70000F3
:10081000014690F82100022816D10868D1E90FC3DB
:10082000026822F00E020260026822F001020260F9
:10083000012000FA03F2CCF8042081F82100002006
:10084000002281F8202070470420886301200022C4
:1008500081F820207047000080B590F8211002290F
:1008600024D10268116821F00E0111602F21136854
:10087000C4F202018A4240F20401C4F2020123F0F0
:100880000103136016DD3023C4F202039A421DD027
:100890004423C4F202039A421CD05823C4F2020338
:1008A0009A421DD14FF4803322E000BF04218163BE
:1008B000012080BD0823C4F202039A420ED01C23FB
:1008C000C4F202039A420BD1102311E04FF480735B
:1008D0000EE000BF4FF480530AE000BF012307E0A1
:1008E00001F1680C4FF08073624508BF4FF480132C
:1008F0000B60012180F82110426B002180F820104C
:100900000AB190470021084680BD000010B5D0E92B
:100910000FCE0168DCF800300A6823FA0EF35C079A
:100920002AD512F0040427D00A68920603D40A6874
:1009300022F004020A602F22C4F20202914240F225
:100940000402C4F202025BDD3023C4F202039942C6
:1009500072D04423C4F20203994273D05823C4F2E4
:100960000203994240F07A804FF480231360C16AF9
:10097000002940F098806FE09C0727D512F0020410
:1009800024D00A68920606D40A6822F00A020A6095
:10099000012280F821202F22C4F20202914240F26B
:1009A0000402C4F202023BDD3023C4F20203994286
:1009B00060D04423C4F2020399425FD05823C4F2AA
:1009C0000203994260D14FF4003365E01B0743D521
:1009D00012F0080208BF10BD0A6822F00E020A6079
:1009E000012101FA0EF2CCF80420816380F8211075
:1009F000016B0022002980F8202054D12CE000BF98
:100A00000823C4F20203994222D01C23C4F2020339
:100A1000994223D140231360C16A002943D11BE0CE
:100A20000823C4F2020399422CD01C23C4F202030F
:100A3000994229D120232FE04FF480631360C16ACB
:100A400089BB09E04FF480431360C16A59BB03E0DE
:100A500004231360C16A31BB10BD00BF02F16804FA
:100A60004FF08063A14208BF4FF480031360C16A56
:100A7000C9B9F1E74FF400730EE000BF4FF4005323
:100A80000AE000BF022307E002F168044FF00073A0
:100A9000A14208BF4FF400131360816A00220029AD
:100AA00080F82020D8D0BDE8104008470146002833
:100AB0004FF0010008BF70472DE9F043D1F800C0A6
:100AC0004FF6F873CBF6FD734CF6CD426344CCF68B
:100AD000CC42A3FB02236FF0030707EA930300272E
:100AE000C4F2020701F10C09C1E90F730223D1E935
:100AF000012E99E87002D1F81C8081F82130DCF8D1
:100B0000003043F6F077BB431A4342EA0E02224319
:100B10002A43324342EA090242EA0802CCF80020A2
:100B200000228A6381F8210081F820200020BDE89E
:100B3000F0437047F0B590F820C0BCF1010F32D0FF
:100B40004FF0010E80F820E090F821C0BCF1010FB9
:100B500026D14FF0020C80F821C04FF0000CC0F8F5
:100B600038C0D0E900C4C56AC66BDCF80070102C30
:100B700027F00107CCF80070006C0EFA00F07060EE
:100B80000846CCF8043004BF10460A46CCF80800EA
:100B9000CCF80C20DCF8000045B140F00E000DE070
:100BA000002180F820100220F0BD00BF20F00400DA
:100BB000CCF80000DCF8000040F00A00CCF800009F
:100BC000DCF8000040F00100CCF800000020F0BD8F
:100BD000B0B5044600F024F9054640F20000C2F228
:100BE00000000078611C18BF044400BF00F018F931
:100BF000401BA042FAD3B0BD2DE9F04F82B00E6881
:100C0000002E00F0038141F20042C4F201020423ED
:100C100040F2004E904208BF03234FF6FF7CC4F21F
:100C2000010E009300240123C1F2100C4FF0000AC2
:100C30004FF0000949E000BF012704F00C030F2228
:100C40009A402BEA020207FA03F34FEA9A051A4385
:100C500046F82520D1F804B040F20C455FEACB22DB
:100C6000DEF8082054BF22EA080242EA0802C4F271
:100C70000105CEF808202A685FEA8B2354BF22EAD8
:100C8000080242EA08022A605FEA8B33DEF8042099
:100C900054BF22EA080242EA08025FEACB33CEF8E8
:100CA0000420DEF800204FF0010354BF22EA0802BE
:100CB00042EA0802CEF800200E680AF1010A36FA6C
:100CC0000AF204F1040400F0A18003FA0AF816EA1B
:100CD000080FF1D04E68664512DC122E56D8DFE8B8
:100CE00006F0350B454955555555555555555555EE
:100CF0005555554D510000BFD1F80C9046E000BF4E
:100D00004FF6FF72C1F2210296420FDC0022C1F2BF
:100D1000110296421AD00022C1F21202964215D058
:100D20000022C1F22102964210D02FE00022C1F22F
:100D3000220296420AD00022C1F23102964205D028
:100D40000022C1F23202964220D100BF8A684AB125
:100D5000012A14BFC0F81480C0F810804FF00809B1
:100D600014E000BF4FF0040910E000BFCA6802F1B0
:100D700008090BE04FF0000908E000BFCA6802F163
:100D8000040903E0CA6802F10C0900BF22460646C6
:100D9000BAF1080F24BF203A043637680F25954072
:100DA00027EA050509FA02F22A433260CA79D20617
:100DB0007FF582AF41F21803C4F202031A68AEF560
:100DC0007E7642F001021A601A6802F00102019276
:100DD000019A2AF0030256F802B040F60002C4F26B
:100DE0000102904210D040F60042C4F2010290424B
:100DF0003FF422AF41F20002C4F20102009F904290
:100E000008BF022719E700BF002716E702B0BDE8B8
:100E1000F08F0000002A08BF09040161704700003C
:100E200040F23C30C2F200000068704740F200001F
:100E300040F23C31C2F20000C2F2000100780A68C0
:100E4000104408607047000080B542F20000C4F210
:100E50000200016841F010010160032000F08EF8EB
:100E60000F2000F005F800F027F8002080BD0000FA
:100E700070B540F20006C2F2000640F20801327876
:100E8000C2F200014FF47A730968B3FBF2F2044630
:100E9000B1FBF2F1084600F06BFB0F2C4FF001059F
:100EA00008D838B94FF0FF3021460022002500F065
:100EB00039F87460284670BD82B041F21800C4F25F
:100EC00002000168022241F001010160016801F0A5
:100ED000010101910199416841F0805141604068F0
:100EE00000F08050009000980420C4F201000168D6
:100EF00062F31A61016002B070470000002848BF29
:100F00007047C1B200F01F00012202FA00F04EF259
:100F10000012CEF2000242EAD10121F00301086082
:100F20007047000010B54EF60C5CCEF2000CDCF8F9
:100F30000030C3F3022E8EF00704042C28BF0424D3
:100F4000BEF103034FF0FF3E0EFA04F438BF002356
:100F5000A14399400EFA03F39A43114300F00F02A4
:100F600000F160430901043A03F564436244002838
:100F700048BF02F10C03197010BD00004EF60C5171
:100F8000CEF200010A684FF6FF031A4060F30A220E
:100F900042F0806040F0FD70086070472DE9F0433A
:100FA00081B0002800F0878042F20008C4F20208F5
:100FB0000446D8F800000D4600F0070088420CD225
:100FC000D8F8000020F007002843C8F80000D8F83F
:100FD000000000F00700A8426DD1206841F204092A
:100FE0008107C4F2020917D5410705D5D9F80010C9
:100FF00041F4E061C9F80010010705D5D9F80010E7
:1010000041F46051C9F80010D9F80010A26821F02D
:10101000F0011143C9F80010C00743D1D8F800000F
:1010200000F00700A8420CD9D8F8000020F0070013
:101030002843C8F80000D8F8000000F00700A842D4
:1010400039D12068410707D5D9F80010E26821F4AA
:10105000E0611143C9F80010000708D5D9F8000075
:10106000216920F4605040EAC100C9F80000D9F8B5
:10107000001041F6003001F00C02042AC0F2B70063
:1010800058D0082A44D144F2B413C1F38342C0F6C5
:1010900000039A5CC90341D440F60010C0F23D0041
:1010A000504347E0606802280AD001282AD159F845
:1010B000041C890308D4012001B0BDE8F08300BFFF
:1010C00059F8041C8901F6D5D9F8001021F0030164
:1010D0000843C9F80000FFF7A3FE064641F288372F
:1010E000D9F80000616800F00C00B0EB810F95D0DA
:1010F000FFF796FE801BB842F2D9032001B0BDE88D
:10110000F08300BF59F8041C8907D4D5DCE700BF81
:1011100041F20020C0F27A000CE000BFD9F80010C4
:1011200044F2B213C1F34041C0F60003595C50438E
:10113000B0FBF1F0D9F8001044F29A12C1F3031198
:10114000C0F60002515C40F2080220FA01F140F2C0
:101150000400C2F200000068C2F200021160FFF752
:1011600087FE002001B0BDE8F083000040F20800D7
:1011700041F20401C2F20000C4F2020100680968F1
:1011800044F2AA12C1F30221C0F60002515CC84029
:101190007047000040F2080041F20401C2F2000072
:1011A000C4F202010068096844F2AA12C1F3C22124
:1011B000C0F60002515CC840704700002DE9F041C4
:1011C00082B0002868D00446007841F20006C007CB
:1011D000C4F2020625D0706800F00C0004281BD071
:1011E000706800F00C00082802D17068C00313D4A6
:1011F0006068002800F06881B0F5A02F00F07C81C5
:10120000B0F5803F00F07C81306820F480303060A1
:10121000306820F4802076E13068800301D5606872
:10122000D0B32078800718D5706810F00C0F07D065
:10123000706800F00C0008286ED17068C0036BD491
:101240003068800702D52069012825D1306861699E
:1012500020F0F80040EAC1003060207800071FD479
:101260002078400732D4E56995B1706800F00C0031
:10127000082840F08F80012D0ED07068216A00F49C
:1012800080328A4208D1616A00F47010884203D12A
:10129000002002B0BDE8F081012002B0BDE8F0817D
:1012A000A069002862D00020C4F242200121C0F8C9
:1012B0008014FFF7B5FD0546706A800700F18C8049
:1012C000FFF7AEFD401B0228F6D92AE1F06910F0C5
:1012D000805808D1F06940F08050F061F06900F06A
:1012E00080500090009847F20007C4F20007386869
:1012F000C00529D4386840F480703860FFF790FD4D
:10130000054600BF3868C0051ED4FFF789FD401BA5
:101310006428F7D905E100BF2069002840F20000E9
:10132000C4F2422000F0828001210160FFF778FDC5
:10133000054600BF306880073FF588AFFFF770FDB6
:10134000401B0228F6D9ECE0E068002800F080801D
:10135000052800F09780012800F09880306A20F07E
:1013600001003062306A20F0040092E00020C4F2F4
:1013700042200021C0F88014FFF752FD054600BF4F
:10138000706A80077FF56CAFFFF74AFD401B0228AB
:10139000F6D9C6E00027C4F2422700203866FFF7DE
:1013A0003FFD022D05460BD13068800140F1BE8023
:1013B000FFF736FD401B02284FF00300F4D968E721
:1013C000306880017FF564AFFFF72AFD401B0228DB
:1013D0004FF00300F4D95CE740F20800C2F20000CD
:1013E000006844F6D351C1F26201A0FB0101480A32
:1013F000019000BF00BF0198411E002801913FF4F9
:101400002FAF00BF0198411E002801913FF428AF83
:1014100000BF0198411E002801913FF421AF00BF99
:101420000198411E00280191E4D119E700210160D3
:10143000FFF7F6FC054600BF306880077FF50DAF6B
:10144000FFF7EEFC401B02284FF00300F4D920E721
:10145000306A20F001003062306A20F0040030620F
:10146000FFF7DEFC054641F2883700BF306A80078F
:1014700020D5FFF7D5FC401BB8424FF00300F5D94B
:1014800007E700BF306A40F004003062306A40F085
:1014900001003062FFF7C4FC054641F2883700BF07
:1014A000306A800706D4FFF7BBFC401BB842F7D96F
:1014B00037E000BFB8F1000F7FF4D5AEF06920F03F
:1014C0008050F061CFE600BF306820F4803030609B
:1014D000306820F480203060FFF7A2FC054600BF92
:1014E000306880037FF59DAEFFF79AFC401B6428AF
:1014F0004FF00300F4D9CCE6306840F4802030602F
:10150000306840F480303060FFF78AFC054600BF49
:10151000306880033FF585AEFFF782FC401B6428EE
:10152000F6D9032002B0BDE8F08100BF206AB0F513
:10153000803F05D17168A26821F4003111437160C8
:101540007168626A21F474111143084370600120CC
:101550003866FFF765FC0446306880013FF598AEB9
:10156000FFF75EFC001B02284FF00300F4D990E661
:10157000411E0020B0EB116F1CBF012070474EF2DE
:101580001002CEF2000251604EF62351CEF200015D
:10159000F0230B70072190601160704770470000C6
:1015A00070470000B0B590F83C20012A04BF02202B
:1015B000B0BD01F108053CCDD1E900CE23F47C5348
:1015C00022F470521A432EF4F0431A432CF4E043F1
:1015D0001A4324F4C0431A432A43C96922F48042BF
:1015E000036811435964002180F83C100846B0BDDF
:1015F00010B590F83C20012A4FF0020233D080F859
:101600003D200268D2F804E0D2F808C00C682EF041
:101610007003234340F2FF74C4F20004A2425360FB
:101620000ADCB2F1804F13D040F20043C4F2000351
:101630009A420DD011E000BF42F60043C4F201030C
:101640009A4205D040F60003C4F200039A4204D146
:1016500049682CF08003194391600121002280F831
:101660003D1080F83C20104610BD0000002804BF4B
:101670000120704710B5044690F83D0028B90020BD
:1016800084F83C00204600F06FF8022084F83D000A
:10169000206840F2FF730268C4F2000342F6004C77
:1016A0009842C4F2010C15DCB0F1804F1AD040F220
:1016B0000041C4F20001884214D0984218DCB0F115
:1016C000804F1DD040F20041C4F20001884217D083
:1016D0001AE000BF604505D040F60001C4F20001E9
:1016E0008842EAD1A16822F070020A439842E6DDFE
:1016F000604505D040F60001C4F20001884203D1E4
:10170000216922F440720A43A36922F08001D4F8CF
:1017100004E0E268194360450160C262C0F828E055
:1017200002D16169CCF83010012141610269D20710
:1017300003D0026922F001020261002084F8461001
:1017400084F83E1084F83F1084F8401084F841106B
:1017500084F8421084F8431084F8441084F845104B
:1017600084F83D1010BD000080B582B0006840F6DE
:101770000001C4F2000188421ED040F20041C4F2D0
:101780000001884225D141F21C00C4F20200016828
:10179000002241F0020101600068002100F0020017
:1017A000019001981D20FFF7BDFB1D2002B0BDE890
:1017B0008040FFF7A3BB00BF41F21C00C4F202004F
:1017C000016841F004010160006800F0040000902D
:1017D000009802B080BD000090F83D1001291CBFA8
:1017E00001207047022180F83D10006840F2FF722E
:1017F000C168C4F20002904241F00101C16009DCFD
:10180000B0F1804F12D040F20041C4F20001884292
:101810000CD012E042F60041C4F20101884205D02A
:1018200040F60001C4F20001884206D1816801F04F
:101830000701062904BF00207047016841F001013B
:10184000016000207047000080B590F83C20012A1C
:101850004FF0020200F0C28080F83D20D0F800C0B6
:101860004FF67772DCF8083023EA0202CCF8082041
:101870000B684F2B28DC1F2B44DD202B45D0302B51
:1018800043D0402B40F0AC80D1F804E0C968DCF8CC
:101890002030DCF8202022F00102CCF82020DCF8F7
:1018A000182022F0F00242EA011123F00A0242EA73
:1018B0000E02CCF81810CCF82020DCF8081041F00B
:1018C000470121F0300180E06F2B27DDB3F5005F89
:1018D00048D0B3F5805F7AD0702B40F08180D1E999
:1018E00001E3C968DCF8082043EA0E0322F47F42D2
:1018F00043EA01211143CCF80810DCF8081041F04C
:10190000770162E00BB1102B6AD1DCF8081021F0EE
:101910007001194341F0070157E000BF502B35D04B
:10192000602B5DD1D1F804E0C968DCF82030DCF828
:10193000202022F01002CCF82020DCF8182022F41D
:10194000704242EA013123F0A00242EA0E12CCF8C2
:101950001810CCF82020DCF8081041F0670121F0C5
:10196000100132E0D1E901E3C968DCF8082043EA5C
:101970000E0322F47F4243EA01211143CCF8081000
:10198000DCF8081041F480411FE000BFD1F804E00A
:10199000C968DCF82030DCF8202022F00102CCF805
:1019A0002020DCF8182022F0F00242EA011123F096
:1019B0000A0242EA0E02CCF81810CCF82020DCF81B
:1019C000081041F0570121F02001CCF80810002246
:1019D000012180F83D10002180F83C10104680BDA8
:1019E0000122F5E7002804BF012070472DE9F04FE0
:1019F00081B0044690F83D000D4628B9002084F8D7
:101A00003C00204600F09AF8022084F83D0020684F
:101A100044F20702816840F2FF73914381600268DB
:101A2000C4F2000342F6004C9842C4F2010C15DCEB
:101A3000B0F1804F1AD040F20041C4F20001884258
:101A400014D0984218DCB0F1804F1DD040F2004114
:101A5000C4F20001884217D01AE000BF604505D0EB
:101A600040F60001C4F200018842EAD1A16822F0E8
:101A700070020A439842E6DD604505D040F6000159
:101A8000C4F20001884203D1216922F440720A4362
:101A9000A36922F08001D4F804E0E26819436045AC
:101AA0000160C262C0F828E002D16169CCF8301050
:101AB0004FF0010EC0F814E00269D20703D00269AA
:101AC00022F00102026182688369D0F820C0D5E962
:101AD0000018D5E9027B41EA020AAA694FF6FF79AC
:101AE00023EA090347EA02224FF6FC47BA43D5E945
:101AF000077643EA0B0329691A4342EA072242EABE
:101B000001112CF022026B6942EA080241EA063117
:101B100042EA0312C0F808A08161026284F846E03C
:101B200084F83EE084F83FE084F842E084F843E043
:101B300084F83DE0002001B0BDE8F08F80B586B0AC
:101B400001680020B1F1804F059001D006B080BD42
:101B500041F21801C4F202014A6842F001024A60EF
:101B60004A6802F001020192019A0A6842F00402F6
:101B70000A60096801F00401019101990321CDE98E
:101B80000210049040F60000C4F2010002A9FFF721
:101B900033F806B080BD000080B590F83E2090F884
:101BA0003F3090F842E090F843C004290AD0B9B918
:101BB000012A4FF0010208BFBEF1010F34D01046D8
:101BC00080BD00BF012B4FF0010208BFBCF1010F27
:101BD000F5D1022180F83F1080F8431000681EE024
:101BE000012A4FF0010208BF012BE8D1BEF1010F1D
:101BF000E5D1BCF1010FE2D1022280F83E2080F84D
:101C00003F2080F8422080F8432091B10068016AAB
:101C100021F001010162016A41F00101016210211C
:101C20006FF0100209E000BF022180F83E1080F83A
:101C30004210006801216FF00102036A1A4002623B
:101C4000026A114301620168002241F00101016052
:101C5000104680BD7047000070B504460068C56836
:101C60000669B10716D515F0020113D06FF0020115
:101C70000161012121778069800703D02046FFF7A9
:101C8000E9FF05E0204600F009F9204600F0B0FA2F
:101C900000202077700719D515F0040016D02068B1
:101CA0006FF00401016102212177806910F4407F07
:101CB00004D02046FFF7CEFF06E000BF204600F02C
:101CC000EDF8204600F094FA00202077300717D571
:101CD00015F0080014D020686FF00801016104219C
:101CE0002177C069800703D02046FFF7B3FF05E0E6
:101CF000204600F0D3F8204600F07AFA0020207742
:101D0000F00619D515F0100016D020686FF01001FC
:101D1000016108212177C06910F4407F04D020467A
:101D2000FFF798FF06E000BF204600F0B7F8204616
:101D300000F05EFA00202077F00718BF15F00100D0
:101D400002D1300609D412E020686FF00101016170
:101D5000204600F0BFFA300609D515F0800006D005
:101D600020686FF0800101612046FFF717FC7006C4
:101D700009D515F0400006D020686FF040010161E0
:101D8000204600F0B7FAB00658BF70BD15F020002D
:101D900008D021686FF0200220460A61BDE870403B
:101DA000FFF7FEBB70BD0000B0B586B0006840F222
:101DB0000041C4F2000188424FF00001CDE9041156
:101DC000CDE9021122D040F60001C4F200018842A0
:101DD00044D042F60041C4F2010188425BD141F295
:101DE0001800C4F20200016841F0040101600068BB
:101DF00000F00400019001984FF4A06002900220CE
:101E0000039040F60000C4F201003FE041F21800E8
:101E1000C4F20200016840F6000441F004010160D0
:101E20000168C4F2010401F0040101910199016803
:101E3000022541F008010160006802A900F00800D5
:101E40000190019880200290204603950595FEF7A9
:101E5000D3FECDE9025504F5806017E041F2180089
:101E6000C4F20200016841F008010160006800F05E
:101E70000800019001984FF45070029002200390E6
:101E800040F60000C4F2010000F5806002210591D7
:101E900002A9FEF7B1FE06B0B0BD00007047000019
:101EA0002DE9F04390F83C30012B04BF0220BDE83F
:101EB000F0834FEAB202032A3CD8DFE802F0034382
:101EC00081BD00BF036842F600461D6A1A6AC4F26B
:101ED000010622F001021A621A465C6852F818CF15
:101EE000B3428E68D1F800E025F0020545EA060508
:101EF0000CD1CE68D1E9057824F4407425F00C05A6
:101F000026F004063C43354344EA08042CF07307EA
:101F100047EA0E075C609F614F6809695F631D6255
:101F20009F6947F008079F619F6927F004079F6139
:101F3000B2E000BF0121002280F83C200846BDE845
:101F4000F08300BF036842F600461D6A1A6AC4F2B5
:101F5000010622F010021A621A46D3F804C052F8A1
:101F6000184FB3428E68D1F800E025F0200545EA0D
:101F7000061510D1CE68D1E9058725F0C0096FF0AC
:101F8000400505EA06152CF4406647EA080745EACD
:101F9000090546EA870C24F4E64444EA0E27C3F810
:101FA00004C09F614F6809699F631D629F6947F480
:101FB00000679F619F6927F480679F616BE000BFA6
:101FC000036842F600461D6A1A6AC4F2010622F44A
:101FD00080721A621A46D3F804C052F81CEFB3425A
:101FE0008E680C6825F4007545EA062511D1CE6887
:101FF000D1E9058725F44069360240F2FF4526EA1B
:1020000005052CF4405647EA080745EA090546EA63
:10201000071C2EF073072743C3F804C0DF614F6825
:102020000969DF631D62DF6947F00807DF61DF6967
:1020300027F00407DF612FE0036842F60047D3F87A
:1020400020C01A6AC4F2010722F480521A621A46AA
:102050005C6852F81C5FD1F800E08E68BB4204D186
:102060004F6924F4804444EA87142CF4005747EA6B
:10207000063725F4E64646EA0E265C60DE614E68C9
:1020800009691E641F62DF6947F40067DF61DF6969
:1020900027F48067DF61090213681943116000218A
:1020A000002280F83C200846BDE8F083002804BFE9
:1020B0000120704710B5044690F83D0028B9002073
:1020C00084F83C00204600F06FF8022084F83D00C0
:1020D000206840F2FF730268C4F2000342F6004C2D
:1020E0009842C4F2010C15DCB0F1804F1AD040F2D6
:1020F0000041C4F20001884214D0984218DCB0F1CB
:10210000804F1DD040F20041C4F20001884217D038
:102110001AE000BF604505D040F60001C4F200019E
:102120008842EAD1A16822F070020A439842E6DDB3
:10213000604505D040F60001C4F20001884203D199
:10214000216922F440720A43A36922F08001D4F885
:1021500004E0E268194360450160C262C0F828E00B
:1021600002D16169CCF83010012141610269D207C6
:1021700003D0026922F001020261002084F84610B7
:1021800084F83E1084F83F1084F8401084F8411021
:1021900084F8421084F8431084F8441084F8451001
:1021A00084F83D1010BD000080B582B0006842F692
:1021B0000041C4F2010188421CBF02B080BD41F25F
:1021C0001800C4F202000168002241F400610160BD
:1021D0000068002100F40060019001981920FEF7CA
:1021E000A1FE192002B0BDE88040FEF787BE0000C6
:1021F0007047000041B1082910D0042914BF00F134
:10220000410200F13F020BE090F83E20012A1CBF82
:1022100001207047022280F83E2013E000F14002C6
:102220001278012A1CBF012070470222082907D01A
:10223000042914BF80F8412080F83F2002E000BF4D
:1022400080F84020006801F01F010122036A8A40E3
:1022500023EA02010162036A42F64441C4F2010129
:102260001A43A1F14403984202620FD040F2FF7179
:10227000C4F20001884213DCB0F1804F1CD040F260
:102280000041C4F20001884216D01CE00A6842F402
:1022900000420A6040F2FF71C4F200018842EBDDA7
:1022A00042F60041C4F20101884205D040F6000127
:1022B000C4F20001884206D1816801F007010629B5
:1022C00004BF00207047016841F001010160002057
:1022D0007047000080B5006840F20041C4F2000180
:1022E000884218BF80BD00F0BDFEBDE8804000F010
:1022F0008BBE000070470000704700007047000070
:10230000B0B582B0044600680168C368426901F054
:102310002F05202D03F0200506D12DB1204602B057
:10232000BDE8B04001F0D8B95FEA017C1EBF02F001
:10233000010E03F4907212EB0E0253D1226B012AAC
:1023400005D111F0100218BF13F0100236D10A06A1
:1023500022D513F080021FD094F8411021293FD1DB
:10236000A168B1F5805F03D12169002900F0708276
:10237000216A4A1C226209784160E18C01390A0411
:10238000E1842DD1C16821F08001C160C16841F0B4
:102390004001C16002B0B0BD490621D513F0400133
:1023A0001ED0C16821F04001C1602021204684F880
:1023B000411002B0BDE8B04000F0D8BB002101914F
:1023C000016801914168019101994069400613D467
:1023D000A08DE18DE28D002A18BF884240F0BA81BD
:1023E00002B0B0BDCA0718BF13F4807240F0B680C7
:1023F0004A0700F1B980BEE0E06B016849688AB223
:10240000002AEDD0A38D9A42EAD2E1858069202886
:1024100000F09C80206850E8030F216820F4807051
:1024200041E80302DAB1206850E8030F216820F484
:10243000807041E8030292B1206850E8030F2168E0
:1024400020F4807041E803024AB1206850E8030F8D
:10245000216820F4807041E80302002ADAD1206864
:1024600050E8050F216820F0010041E80502DAB1CB
:10247000206850E8050F216820F0010041E80502BE
:1024800092B1206850E8050F216820F0010041E872
:1024900005024AB1206850E8050F216820F00100CC
:1024A00041E80502002ADAD1206850E8050F2168CA
:1024B00020F0400041E80502DAB1206850E8050F3D
:1024C000216820F0400041E8050292B1206850E800
:1024D000050F216820F0400041E805024AB120685C
:1024E00050E8050F216820F0400041E80502002A6D
:1024F000DAD1202084F8420000202063206850E8D0
:10250000030F216820F0100041E80302DAB12068CF
:1025100050E8030F216820F0100041E8030292B157
:10252000206850E8030F216820F0100041E8030202
:102530004AB1206850E8030F216820F0100041E8FC
:102540000302002ADAD1E06BFEF762F90220606331
:10255000A08DE18D401A81B2204674E1626C42F098
:10256000010262644A0706D5BEF1000F03D0626C17
:1025700042F0020262648A0706D5BEF1000F03D062
:10258000626C42F004026264BCF1000F09D545EAB6
:102590000E02B2FA82F2520903D1626C42F00802D2
:1025A0006264626C002A3FF41BAF11F0200118BF77
:1025B000002D03D0204601F08FF820684069616C3F
:1025C00000F0400001F00801401800F0B58000BFA5
:1025D000206850E8030F216820F4907041E803025E
:1025E000BAB3206850E8030F216820F4907041E8E6
:1025F000030272B3206850E8030F216820F4907042
:1026000041E803022AB3206850E8030F216820F450
:10261000907041E80302002ADAD11AE0206850E8FD
:10262000050F216820F0010041E80502DAB12068B9
:1026300050E8050F216820F0010041E8050292B141
:10264000206850E8050F216820F0010041E80502EC
:102650004AB1206850E8050F216820F0010041E8E8
:102660000502002ADAD1206B012824D1206850E825
:10267000030F216820F0100041E80302DAB120685E
:1026800050E8030F216820F0100041E8030292B1E6
:10269000206850E8030F216820F0100041E8030291
:1026A0004AB1206850E8030F216820F0100041E88B
:1026B0000302002ADAD1202084F84200002020639F
:1026C0002068406940063FD5206850E8050F216822
:1026D00020F0400041E80502DAB1206850E8050F1B
:1026E000216820F0400041E8050292B1206850E8DE
:1026F000050F216820F0400041E805024AB120683A
:1027000050E8050F216820F0400041E80502002A4A
:10271000DAD1E06BC0B143F28131C0F60001416310
:10272000FEF79AF800283FF45BAEE06B416B02B015
:10273000BDE8B040084700BF2046FFF7DFFD00209E
:10274000606402B0B0BD00BF204602B0BDE8B0403A
:10275000FFF7D4BD401A216851E8031F226821F415
:10276000907142E80313DBB1216851E8031F22682E
:1027700021F4907142E8031393B1216851E8031FDB
:10278000226821F4907142E803134BB1216851E8AB
:10279000031F226821F4907142E80313002BDAD161
:1027A000216851E8051F226821F0010142E8051364
:1027B000DBB1216851E8051F226821F0010142E8E0
:1027C000051393B1216851E8051F226821F001012A
:1027D00042E805134BB1216851E8051F226821F03A
:1027E000010142E80513002BDAD1202184F84210C0
:1027F00000212163216851E8031F226821F01001A4
:1028000042E80313DBB1216851E8031F226821F07D
:10281000100142E8031393B1216851E8031F2268B5
:1028200021F0100142E803134BB1216851E8031F66
:10283000226821F0100142E80313002BDAD10222B2
:1028400081B22046626302B0BDE8B040FFF754BDDC
:10285000216A31F8022B6FF35F22426021628CE51E
:10286000002804BF0120704710B5044690F84100CD
:1028700028B9002084F84000204600F063F82420A6
:1028800084F841002068D4E90212C36823F400539D
:10289000C360036923F440531A430261D4E904235B
:1028A0001143C268194341F20C639A431143C1605A
:1028B0004169A26921F44071114343F60002C4F258
:1028C00001029042416103D0FEF750FC02E000BFDC
:1028D000FEF760FC6268192148439100B0FBF1F0FB
:1028E00048F21F51C5F2EB11A0FB01235A094FF624
:1028F0009C73C0F6FF7302FB0300322303EB00104E
:10290000A0FB0101F02303EA5113206803EB02123C
:10291000C1F3431111448160016921F490410161C7
:10292000416921F02A014161C16841F40051C1604F
:1029300000202021606484F8411084F84210606314
:1029400010BD0000F0B585B040F600050446C4F2A5
:1029500001050068A5F5444100278842039701D08E
:1029600005B0F0BD41F21800C4F20200416801AEAA
:1029700041F400314160416801F400310091009957
:10298000016841F0040101600068314600F0040074
:1029900000900098042001900220029003200490EF
:1029A0002846FEF729F90820CDE9010728463146D7
:1029B0000397FEF721F940F248156C20C2F200059A
:1029C000C4F20200802120224FF40053C5E9000721
:1029D0002846C5E90271C5E90477C5E90623FEF773
:1029E00065F8002818BFFDF70DFF26200021002202
:1029F000E5636C62FEF796FA2620FEF77FFA05B0D3
:102A0000F0BD000070B582B0044690F84200202866
:102A10000AD113460A4600294FF0010018BF002BC7
:102A200006D102B070BD00BF022002B070BD00BF71
:102A3000002522202563A262A385656484F84200F4
:102A40002168E06B43F2615C43F2C16E43F28D3664
:102A5000C0F6000CC0F6000EC0F600060431C0E956
:102A60000ACEC0E90C65FEF765F80195206801689B
:102A70000191406801900198206928B3206850E8CE
:102A8000030F216840F4807041E80302E2B120683E
:102A900050E8030F216840F4807041E803029AB1C6
:102AA000206850E8030F216840F4807041E8030279
:102AB00052B1206850E8030F216840F4807041E86B
:102AC0000302002ADAD100BF206850E8050F216810
:102AD00040F0010041E80502E2B1206850E8050F2E
:102AE000216840F0010041E805029AB1206850E8F1
:102AF000050F216840F0010041E8050252B120684D
:102B000050E8050F216840F0010041E80502002A65
:102B1000DAD100BF206850E8050F216840F040007E
:102B200041E80502DAB1206850E8050F216840F05D
:102B3000400041E8050292B1206850E8050F216885
:102B400040F0400041E805024AB1206850E8050F16
:102B5000216840F0400041E80502002ADAD1002057
:102B600002B070BD70470000704700007047000061
:102B7000FEE7000080B582B041F21400C4F202000A
:102B80000168002241F0010101600068002100F0AD
:102B90000100019001981020FEF7C4F9102002B046
:102BA000BDE88040FEF7AAB92DE9F04F85B041F2AB
:102BB0001800C4F20200016840F6000A41F010015A
:102BC00001600168C4F2010A01F01001019101994C
:102BD00001680AF5006641F02001016001680022E9
:102BE00001F020010191019901684FF4005741F073
:102BF0000401016001684FF0000801F00401019137
:102C00000199016841F00801016000684FF400512A
:102C100000F00800019001983046FEF7FBF850469E
:102C200048F24021002248F24029FEF7F3F80AF565
:102C300080652846012100220124FEF7EBF8CDE94A
:102C4000017401AF4FF0020B30463946CDF80C80CD
:102C5000CDF810B0FDF7D0FF50463946CDE90194CC
:102C6000CDE9038BFDF7C8FF28463946CDE901447D
:102C7000CDE9038BFDF7C0FF4FF400600190002009
:102C8000C1F21100CDE9020850463946FDF7B4FF04
:102C900005B0BDE8F08F000080B592B040F28C1016
:102CA00042F600420021C2F20000C4F201022323D6
:102CB00040F2CF7C1191CDE90F11CDE90D11CDE995
:102CC0000B11CDE90911CDE90711CDE90511CDE9C8
:102CD0000311CDE90111C0E90023C0E9021CC0E9DC
:102CE00004118161FFF7E2F9002818BFFDF78AFDA2
:102CF00040F28C10C2F2000010A9FEF779FC002807
:102D000018BFFDF77FFD602009900020CDE90A0083
:102D1000CDE90C00CDE90E0040F28C10C2F20000AB
:102D200009A90022FFF7BCF8002818BFFDF76AFDCB
:102D300040F28C10C2F2000009A90822FFF7B0F897
:102D4000002818BFFDF75EFD00200590CDE90300C7
:102D5000CDE901004FF40051089040F28C1006912B
:102D6000C2F2000001A9FEF71DFC002818BFFDF704
:102D700049FD40F28C10C2F20000FFF715F812B0C6
:102D800080BD000080B58CB040F2D4100021C2F2AA
:102D900000004FF080424FF6FF73C0E9002101228E
:102DA000CDE90011C0E9021301618161CDE9032180
:102DB000CDE90521CDE90711CDE909210B9103A941
:102DC000FEF710FE002818BFFDF71CFD40F2D410DE
:102DD000C2F200006946FEF70BFC002818BFFDF7A1
:102DE00011FD0CB080BD000010B58EB040F21C206B
:102DF00040F200420021C2F20000C4F2000223238C
:102E000040F2CF740D91CDE90B110991CDE9071175
:102E1000CDE90511CDE90311CDE90111C0E9002388
:102E2000C0E9021401618161FEF720FC002818BF8F
:102E3000FDF7E8FC4FF480500A9040F21C20C2F2EB
:102E400000000AA9FEF700FD002818BFFDF7DAFC14
:102E500040F21C20C2F20000FFF728F9002818BF3A
:102E6000FDF7D0FC40F21C200024C2F2000008A9AB
:102E7000CDE90844FEF7BCFB002818BFFDF7C2FCF3
:102E80006020CDE9010440F21C20C2F2000001A93B
:102E9000042203940594FFF703F8002818BFFDF7F8
:102EA000B1FC40F21C20C2F2000001A90C22FEF786
:102EB000F7FF002818BFFDF7A5FC40F21C20C2F266
:102EC0000000FEF771FF0EB010BD000010B58EB00F
:102ED00040F2642040F600020021C2F20000C4F279
:102EE0000002472344F61F640D91CDE90B110991AF
:102EF000CDE90711CDE90511CDE90311CDE90111A6
:102F0000C0E90023C0E9021401618161FEF7AEFB54
:102F1000002818BFFDF776FC4FF480500A9040F26D
:102F20006420C2F200000AA9FEF78EFC002818BF38
:102F3000FDF768FC40F26420C2F20000FFF7B6F82B
:102F4000002818BFFDF75EFC40F264200024C2F2A6
:102F5000000008A9CDE90844FEF74AFB002818BF85
:102F6000FDF750FC6020CDE9010440F26420C2F27C
:102F7000000001A9002203940594FEF791FF0028A8
:102F800018BFFDF73FFC40F26420C2F2000001A927
:102F90000822FEF785FF002818BFFDF733FC40F23A
:102FA0006420C2F2000001A90C22FEF779FF00287C
:102FB00018BFFDF727FC40F26420C2F20000FEF7C4
:102FC000F3FE0EB010BD000080B540F2AC2044F21C
:102FD0000041C2F20000C4F2000100234FF00C0CCB
:102FE0004FF4165280E80E00C0E90333C0E905C370
:102FF000C361FFF735FC002808BF80BDBDE88040F5
:10300000FDF700BCFEE7000010B540F2B000C2F2D0
:10301000000090F8281040F2F4240129C2F20004C4
:1030200006D0FF29A18904BF0139A18103E000BFB7
:10303000A1890131A181426B006B0BB2C3EB01414D
:10304000401842EBE17100F0BDFE45F60041C4F2CC
:10305000416100F083FD0021C4F2B43100F05CFF57
:10306000606010BDF0B581B040F2B007C2F2000759
:1030700040F2D410D7E90C32C2F200000068FA63C3
:10308000BB63446A0025E01A4EF6612665EB020137
:10309000861B71F100067D633C630BDBFF2087F824
:1030A0002800E01A65EB02014FF6FF72801A61F109
:1030B000000114E041F29F52CFF6FF72121A4FF056
:1030C000FF328A4108DB012287F828204FF6FF7281
:1030D000801841F1000102E0002287F8282000F06A
:1030E00071FE0021C4F2B43100F016FFB98B044622
:1030F000084600F095FE0146204600F02FFD002115
:10310000C4F2B42100F02AFD0021C4F27A4100F09B
:1031100025FDB86101B0F0BDFEE700002DE9F047E4
:1031200004460846114600F0C3FF61690546E060A9
:1031300000F07CFC21690646D4E9008AD4F80890A6
:103140006061284600F0B4FF0746A0613046514652
:1031500000F0E2FE06464046294600F0DDFE31461C
:1031600000F064FC06464846394600F0D5FE31467C
:1031700000F05CFC266A07463146E06100F0C6FCC0
:1031800020B1E6612561BDE8F08700BF666A384678
:10319000314600F0C2FC002808BFE6612561BDE8A9
:1031A000F087000080B5DDE902CEC0E908CE4FF01F
:1031B000000C80E80E10C0E904CCC0E906CC80BD4C
:1031C0007047000070B5FDF72BFE40F2A001C2F27F
:1031D0000001D1E90223801A4FF0000262EB0303E1
:1031E000D0F1320072EB03000CD340F27406C2F24D
:1031F0000006B079012803D030B90020088007E02C
:103200000120088070BD00BF0888002818BF70BD6D
:103210003078717BB27B01284FF6184402D14FF40D
:103220007A700FE0707801284FF618400AD0B37812
:10323000307B012B02D14FF47A7103E0F378012B3C
:1032400008BF214600B209B2FDF7CCFA3079012857
:1032500004D07079012804D14FF47A7420B2FDF7BC
:10326000BBFAF079013818BF0120FDF77DF840F274
:10327000F420C2F20000856840F2B000C2F2000003
:1032800000680021CCF2FA3100F0D0FB0021C4F23A
:10329000FA4100F063FC0021C4F2873100F03CFEEB
:1032A000317A0446012905D14DF20A71C3F6A341D2
:1032B00007E000BF707A012832D14DF20A71CBF6D7
:1032C000A341284600F0B2FB05460026C4F2A02622
:1032D0002846314600F01AFC38B92846002100F093
:1032E0001CFC2E46002808BF002620464FF08741D0
:1032F0004FF0874500F00AFC58B90021C4F2501184
:10330000204600F00AFC2546002804BF0025C4F230
:10331000501530462946BDE87040FDF707B800BF9C
:10332000B07A012808D14DF20A71C3F62351204624
:1033300000F07CFB0446C8E74DF20A71F67ACBF642
:103340002351204600F072FB012E08BF0446BCE763
:1033500040F2AC20C2F2000000F062BA70470000F8
:10336000FDF764BD7047000040F28C10C2F200000F
:10337000FEF772BC40F21C20C2F20000FEF76CBCEB
:10338000406A0021C185C184FEF7B8BF406A016868
:103390004A6990F84130212B2DD112F080022AD0B9
:1033A0000021C184016851E8031F026821F0C001B7
:1033B00042E80313DBB1016851E8031F026821F002
:1033C000C00142E8031393B1016851E8031F02688A
:1033D00021F0C00142E803134BB1016851E8031F1B
:1033E000026821F0C00142E80313002BDAD120214A
:1033F00080F841100168496990F84220222A40F083
:103400007D8011F0400179D00021C185016851E82B
:10341000031F026821F4907142E80313BBB30168F3
:1034200051E8031F026821F4907142E8031373B35B
:10343000016851E8031F026821F4907142E8031308
:103440002BB3016851E8031F026821F4907142E830
:103450000313002BDAD11AE0016851E8051F026856
:1034600021F0010142E80513DBB1016851E8051FB5
:10347000026821F0010142E8051393B1016851E8A7
:10348000051F026821F0010142E805134BB10168F4
:1034900051E8051F026821F0010142E80513002BE5
:1034A000DAD1016B012924D1016851E8031F0268B8
:1034B00021F0100142E80313DBB1016851E8031F5A
:1034C000026821F0100142E8031393B1016851E84A
:1034D000031F026821F0100142E803134BB1016899
:1034E00051E8031F026821F0100142E80313002B8A
:1034F000DAD1202180F8421000210163416C41F0B3
:1035000010014164FEF7FABE10B540F2AC24C2F2DD
:103510000004A04218BF10BDFDF782FCE26B40F230
:10352000A801C2F2000100231268C1E9000310687B
:1035300020F0010010605068C0F1800140F270007E
:10354000C2F2000040F8041B00F0E0F9E06B8021BB
:1035500000684160016841F00101016010BD000098
:103560000168406A0968890600F19F800021C185D1
:10357000016851E8031F026821F4807142E80313D7
:10358000E3B1016851E8031F026821F4807142E849
:1035900003139BB1016851E8031F026821F4807195
:1035A00042E8031353B1016851E8031F026821F494
:1035B000807142E80313002BDAD100BF016851E8A3
:1035C000051F026821F0010142E80513BBB3016841
:1035D00051E8051F026821F0010142E8051373B3A9
:1035E000016851E8051F026821F0010142E8051356
:1035F0002BB3016851E8051F026821F0010142E880
:103600000513002BDAD11AE0016851E8051F0268A2
:1036100021F0400142E80513DBB1016851E8051FC4
:10362000026821F0400142E8051393B1016851E8B6
:10363000051F026821F0400142E805134BB1016803
:1036400051E8051F026821F0400142E80513002BF4
:10365000DAD1202180F84210016B012925D100BF69
:10366000016851E8031F026821F0100142E80313CA
:10367000DBB1016851E8031F026821F0100142E844
:10368000031393B1016851E8031F026821F0100190
:1036900042E803134BB1016851E8031F026821F0AF
:1036A000100142E80313002BDAD100214163016BC2
:1036B000012918BFFFF756BA818DFEF71DBE000025
:1036C000406A01214163016B012918BFFFF74CBA21
:1036D000818D4908FEF710BE81B090F84210222972
:1036E00021D183680246B3F5805F09D152F8281FC3
:1036F00052F8183C002B63D003685B680AE000BFF7
:1037000052F8281F13B90369002BF5D003685B68D2
:1037100003F07F030B70116801311160C18D013915
:103720000A04C18502D001B0704700BF0168CA68B1
:1037300022F02002CA60CA6822F48072CA604A6914
:1037400022F001024A61202180F8421000214163E9
:10375000026B012A3CD10163016851E8031F026832
:1037600021F0100142E80313DBB1016851E8031FA7
:10377000026821F0100142E8031393B1016851E897
:10378000031F026821F0100142E803134BB10168E6
:1037900051E8031F026821F0100142E80313002BD7
:1037A000DAD101680A68D20606D5002200920A68BA
:1037B0000092496800910099818D01B0FEF79CBD8F
:1037C000026852686FF35F2221F8022B8162A5E73D
:1037D00001B0FFF7C7B9000010B582B040F2AC24C9
:1037E000C2F200042046FEF78BFD20680168C9067E
:1037F00012D500210191016801914168019101995F
:10380000C16821F01001C1602046FFF77DFE2068ED
:10381000C16841F01001C16002B010BDFEE70000B8
:1038200081B00021009103688022196800915968D5
:1038300000910099D96841F0100C40F24031C2F279
:103840000001C3F80CC001B0FFF7DCB890B0FDF781
:10385000FBFA00240120CDE90B44CDE90944069090
:103860000A904FF480104FF4803102250F9006A883
:10387000CDE90714CDE90D51FDF7A0FC20B1EFF320
:10388000108072B6FEE700BF0F20CDE901054FF4AE
:103890008060CDE9040401A802210394FDF77EFBBA
:1038A00020B1EFF3108072B6FEE700BFFFF77CF99E
:1038B000FFF760F9FFF788FBFFF796FAFFF7ECF9DF
:1038C000FFF760FAFFF702FBFCF7D0FC0120FDF7E1
:1038D0007FF940F21C20C2F20000FDF77DFF0120BD
:1038E000FDF776F9FCF716FE0120FDF771F9FFF7F9
:1038F0002FFD3320FDF76CF9FFF764FCFCF7A2FC09
:10390000FCF7EAFD0120FDF763F9F5E710B540F299
:10391000403CC2F2000C40F284019CF80030C2F23C
:10392000000100224A70A52B4FF48032C1F802201A
:1039300046D19CF807205A2A42D19CF801E09CF815
:1039400002309CF803209CF8044073441A449CF80D
:10395000053022441A44D3B20A709CF8062006248B
:1039600093424C802CD10222C1F806200023002271
:1039700088614B8106E000BF4A89013294B20C2C69
:103980004A8125D28C889BB21CF8044092B224FA5A
:1039900003F38C6903F00103A3540A89531C9AB200
:1039A000072A0B81E8D98A884C8901328A80621CF7
:1039B00094B200230C2C0B814A81E3D30DE000BFAD
:1039C000D1E9040201300132C1E90402002010BD36
:1039D0001A0402D08A8801328A8003228B880C3034
:1039E000CA80002288618A819AB2802A24BF803BE3
:1039F0008B809AB21CF80220027088888A89431C46
:103A00000132C88894B2844288698B8000F1010039
:103A100088618A81E8D340F20C00C2F2000000887D
:103A20000A69104408610120487010BD90EA010F36
:103A300048BF81F0004100F14283421A3CBF801A26
:103A400089184FEAD052A2EBD1534FF07F4C1CEAB9
:103A5000410F18BF9CEA026F00F03B804FF0004C12
:103A60004CEA00204CEA012121FA03FC10EB0C0C7B
:103A70001ED202F1FF325FEA1C2040EBC25038BF79
:103A800070471CF07F0F4FEA400C18BFBCF17F4F0E
:103A900038BF7047C3F12003994008BF20F00100F0
:103AA000BCF17F4F38BF7047A0F1C04000F0FBBAB7
:103AB0004FEA3C00000A40EBC25028BF1CF0FF0F49
:103AC0004FEA400CE6D018BFBCF17F4F38BF7047BB
:103AD000EAE79CEA026F05D010EA5C0F08BF00F02D
:103AE0000040704710B500F098FA00BF64FBBE3E7E
:103AF00010B500F0F5F80CBF0120002010BD10B586
:103B000000F0EEF814BF0120002010BD10B500F049
:103B10009BF98CBF0120002010BD10B500F094F976
:103B20002CBF0120002010BD10B500F0C1F994BFDA
:103B30000120002010BD10B500F0BAF934BF0120FB
:103B4000002010BD401058BFC0F14040491058BF80
:103B5000C1F140418142EFF3008070474FF47F0C88
:103B60001CEAD0121EBF1CEAD11392EA0C0F93EA92
:103B70000C0F00F0858090EA010F48BF42F480727C
:103B800040F4000C41F400002CF07F4120F07F4015
:103B900000B5A2EB030281420FF2081CACEB504EC1
:103BA0009EF800E0C0F100004FEA4E0E00FB0EFC54
:103BB00038BF49004FEA2C1C0CFB0EF34FEACE1E17
:103BC0000EEB635E4FEA112C0EFB0CFC4FEAC12199
:103BD0004FEA1C5300FB031102F5FA024FEA112CC5
:103BE0000EFB0CFC4FEA01314FEADC4C00FB0C11E0
:103BF00042EB2242C14228BF09184CEB03335DF867
:103C000004EB10EB410143EBC250B2F57C0F38BF1F
:103C1000704729D512F0F00F1CBF00F1C04000F032
:103C200000407047008182838485868788898B8CD9
:103C30008D8E8F919293959697999A9C9D9FA0A215
:103C4000A3A5A7A8AAACAEB0B2B3B5B7B9BCBEC065
:103C5000C2C5C7C9CCCED1D4D7D9DCDFE2E6E9EC06
:103C6000F0F3F7FAFE0000004FEA400C0CF1807C04
:103C7000BCF17E4F28BF7047B0F1C04000F013BACE
:103C80000CEAD11390EA010F48BF42F480726245FA
:103C900038BF634507D213F47F0F16D080EA0100C6
:103CA00000F00040704710B500F0B7F9097EFC3E07
:103CB00000F005B880EA010000F00040704780EA9B
:103CC000010000F0004000F0EEB912F47F0F04BFD5
:103CD0000248704780EA010000F0E5B90000C07FAB
:103CE00050EA010C00F113801CF5000F58BFBCF521
:103CF000000F01D48842704707D710F5000F58BF56
:103D000011F5000F15D488427047894270471CF5A1
:103D1000000F04D5BCF5000FF7D5814270474FF076
:103D2000807C1CEB400F38BF1CEB410F01D281425D
:103D3000704710B500F071F9922449004FF000501F
:103D40004FF08051FFF7FEBE41000B0ED3F19E02F3
:103D500008D950F400034FEA032323FA02F048BFC6
:103D60004042704710B500F058F900BF49922480D6
:103D7000002070476FF0004282EA20007047000088
:103D8000C10DD1F19E0206DB4FEA002343F0004350
:103D900023FA02F07047004207D54FEA4001B1F123
:103DA000FE4F02D24FF00000704710B500F035F919
:103DB00049922480002070476FEA200070474FF03E
:103DC0007E5209E011F0004204D54042C1F10001E9
:103DD00038BF491E42F07E5202F170620B0012BFE2
:103DE00020235FEA00017047B1FA81FC01FA0CF16F
:103DF000A3EB0C0320FA03FC41EA0C0102EBC352D3
:103E0000C3F1200310FA03FC5CEA416C42EB112081
:103E100018BF5FF0806C28BF20F0010070470000E1
:103E2000B0FA80F310FA03F2C3F19D030AD0D9056A
:103E300001EB1220530638BF704700F1010008BFA4
:103E400020F001007047000050EA010C00F11380DF
:103E50001CF5000F58BFBCF5000F01D48842704715
:103E600007D710F5000F58BF11F5000F15D4884281
:103E70007047894270471CF5000F04D5BCF5000F50
:103E8000F7D5814270474FF0807C1CEB400F38BF64
:103E90001CEB410F01D28142704710B500F0BDF814
:103EA000922449004FF080504FF00051FFF74ABE76
:103EB00050EA010C00F113801CF5000F58BFBCF54F
:103EC000000F01D48842704707D710F5000F58BF84
:103ED00011F5000F15D488427047894270471CF5D0
:103EE000000F04D5BCF5000FF7D5814270474FF0A5
:103EF000807C1CEB400F38BF1CEB410F01D281428C
:103F0000704710B500F089F8922449004FF0005036
:103F10004FF08051FFF716BE4FF47F0C1CEAD01211
:103F20001EBF1CEAD11392EA0C0F93EA0C0F00F0AB
:103F3000478090EA010F48BF42F480724FF0004C76
:103F40004CEA00204CEA012102EB0302A0FB011322
:103F5000A2F50002002918BF43F001035B0028BF4F
:103F60004FEA330342EB22425FEA132C4CEBC25080
:103F70002EBFBCEB436FB2F57C0F70474FEA036C6A
:103F8000BCF1004F08BF20F00100B2F57C0F38BF34
:103F900070470BD582F0FF0212F5803FC8BF704713
:103FA00000F1C040D8BF00F00040704700F5000CA1
:103FB0005FEA4C0C48BF7047B0F1C04000F073B8E6
:103FC0000CEAD11390EA010F48BF42F480726245B7
:103FD00038BF634504D280EA010000F0004070471A
:103FE00010B500F01AF800BF8900013E00F007B8D4
:103FF00000F009B85FEA410C5FEA1C6C08D080EA67
:10400000010000F050B85FEA400C5FEA1C6CF6D18A
:104010004FF00040A0F5800070470EF1020E2EF028
:10402000030E5EF8044B244204D44FEA4102B2F17D
:104030007F4F11D84FEA4003B3F17F4F0CD80ED118
:104040004FEAD07C0CEB4C0C0CF1020CB2F17F4F20
:1040500008BF4CEBD17C04E04FF0080C01E04FEAC4
:10406000D17C0CEB4C0324FA03F404F00704B4F104
:10407000040C06D20EEB840CBDE810404CF0010C91
:104080006047DFE80CF0070802024FF00040A0F59F
:10409000800010BD0846420018BFD2F1807288BF70
:1040A00000F0004010BDFF2141EAD050C00570472C
:1040B00090EA010F48BF81F000413FF5BEAC421AC3
:1040C00004D882F00042A0EB020011444FEAD05223
:1040D000A2EBD1534FF07F4C1CEA410F18BF9CEA72
:1040E000026F4AD04FF0004C4CEA00204CEA01210C
:1040F00021FA03FCB0EB0C0C0FD412F0FE0F36D0FB
:104100005FEA4C001DD5001240EBC25038BF70472B
:104110001CF03F0F18BF70470BE05FEA1C20A2F1B4
:10412000010240EBC25038BF70471CF07F0F18BF30
:104130007047C3F12003994014BF401E20F00100D6
:1041400070474FEA1223800808BF7047B0FA80FC1E
:10415000A2EB0C02CCF1280C60FA0CF093EA122FBF
:1041600004BF00EBC25070474FEAC3707047130A98
:104170005FEADC1008BF7047F6E79CEA026F04D0E4
:1041800010EA5C0F08BF0020704710B5FFF745FF2D
:1041900040DFF63E81F00040704700000000000064
:1041A00000000102030406070809000000000102E4
:1041B0000304010202030405060708090A0B0C0D9B
:1041C0000E0F1010E8410008000000201000000051
:1041D00028010008F841000810000020B009000084
:1041E0004401000800000000010000001000000071
:0841F00000127A000800000033
:04000005080000ED02
:00000001FF
